{
  "abi": [
    {
      "type": "function",
      "name": "addCampaign",
      "inputs": [
        {
          "name": "name",
          "type": "string",
          "internalType": "string"
        },
        {
          "name": "description",
          "type": "string",
          "internalType": "string"
        },
        {
          "name": "campaignLinks",
          "type": "tuple[]",
          "internalType": "struct AirDropManager.Link[]",
          "components": [
            {
              "name": "link",
              "type": "string",
              "internalType": "string"
            },
            {
              "name": "description",
              "type": "string",
              "internalType": "string"
            }
          ]
        },
        {
          "name": "campaignSteps",
          "type": "string[]",
          "internalType": "string[]"
        }
      ],
      "outputs": [
        {
          "name": "",
          "type": "tuple",
          "internalType": "struct AirDropManager.Campaign",
          "components": [
            {
              "name": "id",
              "type": "uint256",
              "internalType": "uint256"
            },
            {
              "name": "name",
              "type": "string",
              "internalType": "string"
            },
            {
              "name": "description",
              "type": "string",
              "internalType": "string"
            },
            {
              "name": "isRunning",
              "type": "bool",
              "internalType": "bool"
            },
            {
              "name": "campaignSteps",
              "type": "string[]",
              "internalType": "string[]"
            },
            {
              "name": "campaignLinks",
              "type": "tuple[]",
              "internalType": "struct AirDropManager.Link[]",
              "components": [
                {
                  "name": "link",
                  "type": "string",
                  "internalType": "string"
                },
                {
                  "name": "description",
                  "type": "string",
                  "internalType": "string"
                }
              ]
            }
          ]
        }
      ],
      "stateMutability": "nonpayable"
    },
    {
      "type": "function",
      "name": "deleteCampaign",
      "inputs": [
        {
          "name": "campaignId",
          "type": "uint256",
          "internalType": "uint256"
        }
      ],
      "outputs": [],
      "stateMutability": "nonpayable"
    },
    {
      "type": "function",
      "name": "getCampaigns",
      "inputs": [],
      "outputs": [
        {
          "name": "",
          "type": "tuple[]",
          "internalType": "struct AirDropManager.Campaign[]",
          "components": [
            {
              "name": "id",
              "type": "uint256",
              "internalType": "uint256"
            },
            {
              "name": "name",
              "type": "string",
              "internalType": "string"
            },
            {
              "name": "description",
              "type": "string",
              "internalType": "string"
            },
            {
              "name": "isRunning",
              "type": "bool",
              "internalType": "bool"
            },
            {
              "name": "campaignSteps",
              "type": "string[]",
              "internalType": "string[]"
            },
            {
              "name": "campaignLinks",
              "type": "tuple[]",
              "internalType": "struct AirDropManager.Link[]",
              "components": [
                {
                  "name": "link",
                  "type": "string",
                  "internalType": "string"
                },
                {
                  "name": "description",
                  "type": "string",
                  "internalType": "string"
                }
              ]
            }
          ]
        }
      ],
      "stateMutability": "view"
    },
    {
      "type": "function",
      "name": "getHunters",
      "inputs": [],
      "outputs": [
        {
          "name": "",
          "type": "address[]",
          "internalType": "address[]"
        }
      ],
      "stateMutability": "view"
    },
    {
      "type": "function",
      "name": "getIndividualCampaignStats",
      "inputs": [],
      "outputs": [
        {
          "name": "totalCampaigns",
          "type": "uint256",
          "internalType": "uint256"
        },
        {
          "name": "runningCampaigns",
          "type": "uint256",
          "internalType": "uint256"
        },
        {
          "name": "closedCampaigns",
          "type": "uint256",
          "internalType": "uint256"
        }
      ],
      "stateMutability": "view"
    },
    {
      "type": "function",
      "name": "getSingleCampaign",
      "inputs": [
        {
          "name": "id",
          "type": "uint256",
          "internalType": "uint256"
        }
      ],
      "outputs": [
        {
          "name": "",
          "type": "tuple",
          "internalType": "struct AirDropManager.Campaign",
          "components": [
            {
              "name": "id",
              "type": "uint256",
              "internalType": "uint256"
            },
            {
              "name": "name",
              "type": "string",
              "internalType": "string"
            },
            {
              "name": "description",
              "type": "string",
              "internalType": "string"
            },
            {
              "name": "isRunning",
              "type": "bool",
              "internalType": "bool"
            },
            {
              "name": "campaignSteps",
              "type": "string[]",
              "internalType": "string[]"
            },
            {
              "name": "campaignLinks",
              "type": "tuple[]",
              "internalType": "struct AirDropManager.Link[]",
              "components": [
                {
                  "name": "link",
                  "type": "string",
                  "internalType": "string"
                },
                {
                  "name": "description",
                  "type": "string",
                  "internalType": "string"
                }
              ]
            }
          ]
        }
      ],
      "stateMutability": "view"
    },
    {
      "type": "function",
      "name": "getUserCampaigns",
      "inputs": [
        {
          "name": "_address",
          "type": "address",
          "internalType": "address"
        }
      ],
      "outputs": [
        {
          "name": "",
          "type": "tuple[]",
          "internalType": "struct AirDropManager.Campaign[]",
          "components": [
            {
              "name": "id",
              "type": "uint256",
              "internalType": "uint256"
            },
            {
              "name": "name",
              "type": "string",
              "internalType": "string"
            },
            {
              "name": "description",
              "type": "string",
              "internalType": "string"
            },
            {
              "name": "isRunning",
              "type": "bool",
              "internalType": "bool"
            },
            {
              "name": "campaignSteps",
              "type": "string[]",
              "internalType": "string[]"
            },
            {
              "name": "campaignLinks",
              "type": "tuple[]",
              "internalType": "struct AirDropManager.Link[]",
              "components": [
                {
                  "name": "link",
                  "type": "string",
                  "internalType": "string"
                },
                {
                  "name": "description",
                  "type": "string",
                  "internalType": "string"
                }
              ]
            }
          ]
        }
      ],
      "stateMutability": "view"
    },
    {
      "type": "function",
      "name": "toggleIsRunning",
      "inputs": [
        {
          "name": "campaignId",
          "type": "uint256",
          "internalType": "uint256"
        }
      ],
      "outputs": [],
      "stateMutability": "nonpayable"
    },
    {
      "type": "function",
      "name": "updateCampaign",
      "inputs": [
        {
          "name": "id",
          "type": "uint256",
          "internalType": "uint256"
        },
        {
          "name": "name",
          "type": "string",
          "internalType": "string"
        },
        {
          "name": "description",
          "type": "string",
          "internalType": "string"
        },
        {
          "name": "campaignLinks",
          "type": "tuple[]",
          "internalType": "struct AirDropManager.Link[]",
          "components": [
            {
              "name": "link",
              "type": "string",
              "internalType": "string"
            },
            {
              "name": "description",
              "type": "string",
              "internalType": "string"
            }
          ]
        },
        {
          "name": "campaignSteps",
          "type": "string[]",
          "internalType": "string[]"
        }
      ],
      "outputs": [],
      "stateMutability": "nonpayable"
    },
    {
      "type": "error",
      "name": "AIRDROPMGR_campaignNotFound",
      "inputs": []
    },
    {
      "type": "error",
      "name": "AIRDROPMGR_linksMissing",
      "inputs": []
    },
    {
      "type": "error",
      "name": "AIRDROPMGR_missingFields",
      "inputs": []
    },
    {
      "type": "error",
      "name": "AIRDROPMGR_notOwner",
      "inputs": []
    },
    {
      "type": "error",
      "name": "AIRDROPMGR_stepsMissing",
      "inputs": []
    }
  ],
  "bytecode": {
    "object": "0x6080604052348015600e575f5ffd5b5061337f8061001c5f395ff3fe608060405234801561000f575f5ffd5b5060043610610091575f3560e01c80637597019311610064578063759701931461012d578063a1e5084c14610149578063a6b0363314610179578063f087492e14610197578063fd6f5b4d146101b757610091565b806304efaa02146100955780633174968a146100c557806331a1f7fa146100e15780634382af5714610111575b5f5ffd5b6100af60048036038101906100aa91906122cf565b6101d5565b6040516100bc91906125e5565b60405180910390f35b6100df60048036038101906100da919061297e565b61069c565b005b6100fb60048036038101906100f69190612a65565b6108e2565b60405161010891906125e5565b60405180910390f35b61012b600480360381019061012691906122cf565b610f92565b005b610147600480360381019061014291906122cf565b6110c5565b005b610163600480360381019061015e9190612b93565b61131c565b6040516101709190612d14565b60405180910390f35b610181611746565b60405161018e9190612d14565b60405180910390f35b61019f611b6e565b6040516101ae93929190612d43565b60405180910390f35b6101bf612007565b6040516101cc9190612e2f565b60405180910390f35b6101dd612092565b5f5f5f3373ffffffffffffffffffffffffffffffffffffffff1673ffffffffffffffffffffffffffffffffffffffff1681526020019081526020015f20805480602002602001604051908101604052809291908181526020015f905b828210156105fb578382905f5260205f2090600602016040518060c00160405290815f820154815260200160018201805461027390612e7c565b80601f016020809104026020016040519081016040528092919081815260200182805461029f90612e7c565b80156102ea5780601f106102c1576101008083540402835291602001916102ea565b820191905f5260205f20905b8154815290600101906020018083116102cd57829003601f168201915b5050505050815260200160028201805461030390612e7c565b80601f016020809104026020016040519081016040528092919081815260200182805461032f90612e7c565b801561037a5780601f106103515761010080835404028352916020019161037a565b820191905f5260205f20905b81548152906001019060200180831161035d57829003601f168201915b50505050508152602001600382015f9054906101000a900460ff1615151515815260200160048201805480602002602001604051908101604052809291908181526020015f905b82821015610469578382905f5260205f200180546103de90612e7c565b80601f016020809104026020016040519081016040528092919081815260200182805461040a90612e7c565b80156104555780601f1061042c57610100808354040283529160200191610455565b820191905f5260205f20905b81548152906001019060200180831161043857829003601f168201915b5050505050815260200190600101906103c1565b50505050815260200160058201805480602002602001604051908101604052809291908181526020015f905b828210156105e4578382905f5260205f2090600202016040518060400160405290815f820180546104c590612e7c565b80601f01602080910402602001604051908101604052809291908181526020018280546104f190612e7c565b801561053c5780601f106105135761010080835404028352916020019161053c565b820191905f5260205f20905b81548152906001019060200180831161051f57829003601f168201915b5050505050815260200160018201805461055590612e7c565b80601f016020809104026020016040519081016040528092919081815260200182805461058190612e7c565b80156105cc5780601f106105a3576101008083540402835291602001916105cc565b820191905f5260205f20905b8154815290600101906020018083116105af57829003601f168201915b50505050508152505081526020019060010190610495565b505050508152505081526020019060010190610239565b5050505090505f5f90505b81518110156106645781818151811061062257610621612eac565b5b60200260200101515f015184036106575781818151811061064657610645612eac565b5b602002602001015192505050610697565b8080600101915050610606565b506040517f099c15f400000000000000000000000000000000000000000000000000000000815260040160405180910390fd5b919050565b5f5f5f3373ffffffffffffffffffffffffffffffffffffffff1673ffffffffffffffffffffffffffffffffffffffff1681526020019081526020015f2090505f5f90505f5f90505b82805490508110156108a1578783828154811061070457610703612eac565b5b905f5260205f2090600602015f015403610894578683828154811061072c5761072b612eac565b5b905f5260205f20906006020160010190816107479190613079565b508583828154811061075c5761075b612eac565b5b905f5260205f20906006020160020190816107779190613079565b505f5f90505b855181101561088e5783828154811061079957610798612eac565b5b905f5260205f2090600602016005018682815181106107bb576107ba612eac565b5b6020026020010151908060018154018082558091505060019003905f5260205f2090600202015f909190919091505f820151815f0190816107fc9190613079565b5060208201518160010190816108129190613079565b50505083828154811061082857610827612eac565b5b905f5260205f20906006020160040185828151811061084a57610849612eac565b5b6020026020010151908060018154018082558091505060019003905f5260205f20015f9091909190915090816108809190613079565b50808060010191505061077d565b50600191505b80806001019150506106e4565b50806108d9576040517f099c15f400000000000000000000000000000000000000000000000000000000815260040160405180910390fd5b50505050505050565b6108ea612092565b5f855103610924576040517fee453b4b00000000000000000000000000000000000000000000000000000000815260040160405180910390fd5b5f84510361095e576040517fee453b4b00000000000000000000000000000000000000000000000000000000815260040160405180910390fd5b60018351101561099a576040517fa58b175200000000000000000000000000000000000000000000000000000000815260040160405180910390fd5b6001825110156109d6576040517fbf51c1af00000000000000000000000000000000000000000000000000000000815260040160405180910390fd5b5f5f5f3373ffffffffffffffffffffffffffffffffffffffff1673ffffffffffffffffffffffffffffffffffffffff1681526020019081526020015f2060018160018154018082558091505003905f5260205f2090600602019050600154815f018190555085816001019081610a4c9190613079565b5084816002019081610a5e9190613079565b506001816003015f6101000a81548160ff0219169083151502179055505f5f90505b8451811015610b075781600501858281518110610aa057610a9f612eac565b5b6020026020010151908060018154018082558091505060019003905f5260205f2090600202015f909190919091505f820151815f019081610ae19190613079565b506020820151816001019081610af79190613079565b5050508080600101915050610a80565b505f5f90505b8351811015610b715781600401848281518110610b2d57610b2c612eac565b5b6020026020010151908060018154018082558091505060019003905f5260205f20015f909190919091509081610b639190613079565b508080600101915050610b0d565b50600233908060018154018082558091505060019003905f5260205f20015f9091909190916101000a81548173ffffffffffffffffffffffffffffffffffffffff021916908373ffffffffffffffffffffffffffffffffffffffff16021790555060015f815480929190610be490613175565b9190505550806040518060c00160405290815f8201548152602001600182018054610c0e90612e7c565b80601f0160208091040260200160405190810160405280929190818152602001828054610c3a90612e7c565b8015610c855780601f10610c5c57610100808354040283529160200191610c85565b820191905f5260205f20905b815481529060010190602001808311610c6857829003601f168201915b50505050508152602001600282018054610c9e90612e7c565b80601f0160208091040260200160405190810160405280929190818152602001828054610cca90612e7c565b8015610d155780601f10610cec57610100808354040283529160200191610d15565b820191905f5260205f20905b815481529060010190602001808311610cf857829003601f168201915b50505050508152602001600382015f9054906101000a900460ff1615151515815260200160048201805480602002602001604051908101604052809291908181526020015f905b82821015610e04578382905f5260205f20018054610d7990612e7c565b80601f0160208091040260200160405190810160405280929190818152602001828054610da590612e7c565b8015610df05780601f10610dc757610100808354040283529160200191610df0565b820191905f5260205f20905b815481529060010190602001808311610dd357829003601f168201915b505050505081526020019060010190610d5c565b50505050815260200160058201805480602002602001604051908101604052809291908181526020015f905b82821015610f7f578382905f5260205f2090600202016040518060400160405290815f82018054610e6090612e7c565b80601f0160208091040260200160405190810160405280929190818152602001828054610e8c90612e7c565b8015610ed75780601f10610eae57610100808354040283529160200191610ed7565b820191905f5260205f20905b815481529060010190602001808311610eba57829003601f168201915b50505050508152602001600182018054610ef090612e7c565b80601f0160208091040260200160405190810160405280929190818152602001828054610f1c90612e7c565b8015610f675780601f10610f3e57610100808354040283529160200191610f67565b820191905f5260205f20905b815481529060010190602001808311610f4a57829003601f168201915b50505050508152505081526020019060010190610e30565b5050505081525050915050949350505050565b5f5f5f3373ffffffffffffffffffffffffffffffffffffffff1673ffffffffffffffffffffffffffffffffffffffff1681526020019081526020015f2090505f5f90505f5f90505b82805490508110156110885783838281548110610ffa57610ff9612eac565b5b905f5260205f2090600602015f01540361107b5782818154811061102157611020612eac565b5b905f5260205f2090600602016003015f9054906101000a900460ff161583828154811061105157611050612eac565b5b905f5260205f2090600602016003015f6101000a81548160ff021916908315150217905550600191505b8080600101915050610fda565b50806110c0576040517f099c15f400000000000000000000000000000000000000000000000000000000815260040160405180910390fd5b505050565b5f5f5f3373ffffffffffffffffffffffffffffffffffffffff1673ffffffffffffffffffffffffffffffffffffffff1681526020019081526020015f2090505f5f90505f5f90505b82805490508110156112df578383828154811061112d5761112c612eac565b5b905f5260205f2090600602015f0154036112cc575f8190505b6001848054905061115791906131bc565b811015611249578360018261116c91906131ef565b8154811061117d5761117c612eac565b5b905f5260205f20906006020184828154811061119c5761119b612eac565b5b905f5260205f2090600602015f820154815f0155600182018160010190816111c49190613237565b50600282018160020190816111d99190613237565b50600382015f9054906101000a900460ff16816003015f6101000a81548160ff021916908315150217905550600482018160040190805461121b9291906120c8565b506005820181600501908054611232929190612121565b50905050818061124190613175565b925050611146565b508280548061125b5761125a61331c565b5b600190038181905f5260205f2090600602015f5f82015f9055600182015f611283919061219d565b600282015f611292919061219d565b600382015f6101000a81549060ff0219169055600482015f6112b491906121da565b600582015f6112c391906121f8565b50509055600191505b80806112d790613175565b91505061110d565b5080611317576040517f099c15f400000000000000000000000000000000000000000000000000000000815260040160405180910390fd5b505050565b60605f5f8373ffffffffffffffffffffffffffffffffffffffff1673ffffffffffffffffffffffffffffffffffffffff1681526020019081526020015f20805480602002602001604051908101604052809291908181526020015f905b8282101561173b578382905f5260205f2090600602016040518060c00160405290815f82015481526020016001820180546113b390612e7c565b80601f01602080910402602001604051908101604052809291908181526020018280546113df90612e7c565b801561142a5780601f106114015761010080835404028352916020019161142a565b820191905f5260205f20905b81548152906001019060200180831161140d57829003601f168201915b5050505050815260200160028201805461144390612e7c565b80601f016020809104026020016040519081016040528092919081815260200182805461146f90612e7c565b80156114ba5780601f10611491576101008083540402835291602001916114ba565b820191905f5260205f20905b81548152906001019060200180831161149d57829003601f168201915b50505050508152602001600382015f9054906101000a900460ff1615151515815260200160048201805480602002602001604051908101604052809291908181526020015f905b828210156115a9578382905f5260205f2001805461151e90612e7c565b80601f016020809104026020016040519081016040528092919081815260200182805461154a90612e7c565b80156115955780601f1061156c57610100808354040283529160200191611595565b820191905f5260205f20905b81548152906001019060200180831161157857829003601f168201915b505050505081526020019060010190611501565b50505050815260200160058201805480602002602001604051908101604052809291908181526020015f905b82821015611724578382905f5260205f2090600202016040518060400160405290815f8201805461160590612e7c565b80601f016020809104026020016040519081016040528092919081815260200182805461163190612e7c565b801561167c5780601f106116535761010080835404028352916020019161167c565b820191905f5260205f20905b81548152906001019060200180831161165f57829003601f168201915b5050505050815260200160018201805461169590612e7c565b80601f01602080910402602001604051908101604052809291908181526020018280546116c190612e7c565b801561170c5780601f106116e35761010080835404028352916020019161170c565b820191905f5260205f20905b8154815290600101906020018083116116ef57829003601f168201915b505050505081525050815260200190600101906115d5565b505050508152505081526020019060010190611379565b505050509050919050565b60605f5f3373ffffffffffffffffffffffffffffffffffffffff1673ffffffffffffffffffffffffffffffffffffffff1681526020019081526020015f20805480602002602001604051908101604052809291908181526020015f905b82821015611b65578382905f5260205f2090600602016040518060c00160405290815f82015481526020016001820180546117dd90612e7c565b80601f016020809104026020016040519081016040528092919081815260200182805461180990612e7c565b80156118545780601f1061182b57610100808354040283529160200191611854565b820191905f5260205f20905b81548152906001019060200180831161183757829003601f168201915b5050505050815260200160028201805461186d90612e7c565b80601f016020809104026020016040519081016040528092919081815260200182805461189990612e7c565b80156118e45780601f106118bb576101008083540402835291602001916118e4565b820191905f5260205f20905b8154815290600101906020018083116118c757829003601f168201915b50505050508152602001600382015f9054906101000a900460ff1615151515815260200160048201805480602002602001604051908101604052809291908181526020015f905b828210156119d3578382905f5260205f2001805461194890612e7c565b80601f016020809104026020016040519081016040528092919081815260200182805461197490612e7c565b80156119bf5780601f10611996576101008083540402835291602001916119bf565b820191905f5260205f20905b8154815290600101906020018083116119a257829003601f168201915b50505050508152602001906001019061192b565b50505050815260200160058201805480602002602001604051908101604052809291908181526020015f905b82821015611b4e578382905f5260205f2090600202016040518060400160405290815f82018054611a2f90612e7c565b80601f0160208091040260200160405190810160405280929190818152602001828054611a5b90612e7c565b8015611aa65780601f10611a7d57610100808354040283529160200191611aa6565b820191905f5260205f20905b815481529060010190602001808311611a8957829003601f168201915b50505050508152602001600182018054611abf90612e7c565b80601f0160208091040260200160405190810160405280929190818152602001828054611aeb90612e7c565b8015611b365780601f10611b0d57610100808354040283529160200191611b36565b820191905f5260205f20905b815481529060010190602001808311611b1957829003601f168201915b505050505081525050815260200190600101906119ff565b5050505081525050815260200190600101906117a3565b50505050905090565b5f5f5f5f5f5f3373ffffffffffffffffffffffffffffffffffffffff1673ffffffffffffffffffffffffffffffffffffffff1681526020019081526020015f20805480602002602001604051908101604052809291908181526020015f905b82821015611f8f578382905f5260205f2090600602016040518060c00160405290815f8201548152602001600182018054611c0790612e7c565b80601f0160208091040260200160405190810160405280929190818152602001828054611c3390612e7c565b8015611c7e5780601f10611c5557610100808354040283529160200191611c7e565b820191905f5260205f20905b815481529060010190602001808311611c6157829003601f168201915b50505050508152602001600282018054611c9790612e7c565b80601f0160208091040260200160405190810160405280929190818152602001828054611cc390612e7c565b8015611d0e5780601f10611ce557610100808354040283529160200191611d0e565b820191905f5260205f20905b815481529060010190602001808311611cf157829003601f168201915b50505050508152602001600382015f9054906101000a900460ff1615151515815260200160048201805480602002602001604051908101604052809291908181526020015f905b82821015611dfd578382905f5260205f20018054611d7290612e7c565b80601f0160208091040260200160405190810160405280929190818152602001828054611d9e90612e7c565b8015611de95780601f10611dc057610100808354040283529160200191611de9565b820191905f5260205f20905b815481529060010190602001808311611dcc57829003601f168201915b505050505081526020019060010190611d55565b50505050815260200160058201805480602002602001604051908101604052809291908181526020015f905b82821015611f78578382905f5260205f2090600202016040518060400160405290815f82018054611e5990612e7c565b80601f0160208091040260200160405190810160405280929190818152602001828054611e8590612e7c565b8015611ed05780601f10611ea757610100808354040283529160200191611ed0565b820191905f5260205f20905b815481529060010190602001808311611eb357829003601f168201915b50505050508152602001600182018054611ee990612e7c565b80601f0160208091040260200160405190810160405280929190818152602001828054611f1590612e7c565b8015611f605780601f10611f3757610100808354040283529160200191611f60565b820191905f5260205f20905b815481529060010190602001808311611f4357829003601f168201915b50505050508152505081526020019060010190611e29565b505050508152505081526020019060010190611bcd565b505050509050805193505f92505f91505f5f90505b815181101561200057818181518110611fc057611fbf612eac565b5b60200260200101516060015115611fe4578380611fdc90613175565b945050611ff3565b8280611fef90613175565b9350505b8080600101915050611fa4565b5050909192565b6060600280548060200260200160405190810160405280929190818152602001828054801561208857602002820191905f5260205f20905b815f9054906101000a900473ffffffffffffffffffffffffffffffffffffffff1673ffffffffffffffffffffffffffffffffffffffff168152602001906001019080831161203f575b5050505050905090565b6040518060c001604052805f815260200160608152602001606081526020015f1515815260200160608152602001606081525090565b828054828255905f5260205f20908101928215612110575f5260205f209182015b8281111561210f57828290816120ff9190613237565b50916001019190600101906120e9565b5b50905061211d9190612219565b5090565b828054828255905f5260205f2090600202810192821561218c575f5260205f209160020282015b8281111561218b5782825f8201815f0190816121649190613237565b50600182018160010190816121799190613237565b50505091600201919060020190612148565b5b509050612199919061223c565b5090565b5080546121a990612e7c565b5f825580601f106121ba57506121d7565b601f0160209004905f5260205f20908101906121d69190612270565b5b50565b5080545f8255905f5260205f20908101906121f59190612219565b50565b5080545f8255600202905f5260205f2090810190612216919061223c565b50565b5b80821115612238575f818161222f919061219d565b5060010161221a565b5090565b5b8082111561226c575f5f82015f612254919061219d565b600182015f612263919061219d565b5060020161223d565b5090565b5b80821115612287575f815f905550600101612271565b5090565b5f604051905090565b5f5ffd5b5f5ffd5b5f819050919050565b6122ae8161229c565b81146122b8575f5ffd5b50565b5f813590506122c9816122a5565b92915050565b5f602082840312156122e4576122e3612294565b5b5f6122f1848285016122bb565b91505092915050565b6123038161229c565b82525050565b5f81519050919050565b5f82825260208201905092915050565b8281835e5f83830152505050565b5f601f19601f8301169050919050565b5f61234b82612309565b6123558185612313565b9350612365818560208601612323565b61236e81612331565b840191505092915050565b5f8115159050919050565b61238d81612379565b82525050565b5f81519050919050565b5f82825260208201905092915050565b5f819050602082019050919050565b5f6123c78383612341565b905092915050565b5f602082019050919050565b5f6123e582612393565b6123ef818561239d565b935083602082028501612401856123ad565b805f5b8581101561243c578484038952815161241d85826123bc565b9450612428836123cf565b925060208a01995050600181019050612404565b50829750879550505050505092915050565b5f81519050919050565b5f82825260208201905092915050565b5f819050602082019050919050565b5f604083015f8301518482035f8601526124918282612341565b915050602083015184820360208601526124ab8282612341565b9150508091505092915050565b5f6124c38383612477565b905092915050565b5f602082019050919050565b5f6124e18261244e565b6124eb8185612458565b9350836020820285016124fd85612468565b805f5b85811015612538578484038952815161251985826124b8565b9450612524836124cb565b925060208a01995050600181019050612500565b50829750879550505050505092915050565b5f60c083015f83015161255f5f8601826122fa565b50602083015184820360208601526125778282612341565b915050604083015184820360408601526125918282612341565b91505060608301516125a66060860182612384565b50608083015184820360808601526125be82826123db565b91505060a083015184820360a08601526125d882826124d7565b9150508091505092915050565b5f6020820190508181035f8301526125fd818461254a565b905092915050565b5f5ffd5b5f5ffd5b7f4e487b71000000000000000000000000000000000000000000000000000000005f52604160045260245ffd5b61264382612331565b810181811067ffffffffffffffff821117156126625761266161260d565b5b80604052505050565b5f61267461228b565b9050612680828261263a565b919050565b5f67ffffffffffffffff82111561269f5761269e61260d565b5b6126a882612331565b9050602081019050919050565b828183375f83830152505050565b5f6126d56126d084612685565b61266b565b9050828152602081018484840111156126f1576126f0612609565b5b6126fc8482856126b5565b509392505050565b5f82601f83011261271857612717612605565b5b81356127288482602086016126c3565b91505092915050565b5f67ffffffffffffffff82111561274b5761274a61260d565b5b602082029050602081019050919050565b5f5ffd5b5f5ffd5b5f5ffd5b5f6040828403121561277d5761277c612760565b5b612787604061266b565b90505f82013567ffffffffffffffff8111156127a6576127a5612764565b5b6127b284828501612704565b5f83015250602082013567ffffffffffffffff8111156127d5576127d4612764565b5b6127e184828501612704565b60208301525092915050565b5f6127ff6127fa84612731565b61266b565b905080838252602082019050602084028301858111156128225761282161275c565b5b835b8181101561286957803567ffffffffffffffff81111561284757612846612605565b5b8086016128548982612768565b85526020850194505050602081019050612824565b5050509392505050565b5f82601f83011261288757612886612605565b5b81356128978482602086016127ed565b91505092915050565b5f67ffffffffffffffff8211156128ba576128b961260d565b5b602082029050602081019050919050565b5f6128dd6128d8846128a0565b61266b565b90508083825260208201905060208402830185811115612900576128ff61275c565b5b835b8181101561294757803567ffffffffffffffff81111561292557612924612605565b5b8086016129328982612704565b85526020850194505050602081019050612902565b5050509392505050565b5f82601f83011261296557612964612605565b5b81356129758482602086016128cb565b91505092915050565b5f5f5f5f5f60a0868803121561299757612996612294565b5b5f6129a4888289016122bb565b955050602086013567ffffffffffffffff8111156129c5576129c4612298565b5b6129d188828901612704565b945050604086013567ffffffffffffffff8111156129f2576129f1612298565b5b6129fe88828901612704565b935050606086013567ffffffffffffffff811115612a1f57612a1e612298565b5b612a2b88828901612873565b925050608086013567ffffffffffffffff811115612a4c57612a4b612298565b5b612a5888828901612951565b9150509295509295909350565b5f5f5f5f60808587031215612a7d57612a7c612294565b5b5f85013567ffffffffffffffff811115612a9a57612a99612298565b5b612aa687828801612704565b945050602085013567ffffffffffffffff811115612ac757612ac6612298565b5b612ad387828801612704565b935050604085013567ffffffffffffffff811115612af457612af3612298565b5b612b0087828801612873565b925050606085013567ffffffffffffffff811115612b2157612b20612298565b5b612b2d87828801612951565b91505092959194509250565b5f73ffffffffffffffffffffffffffffffffffffffff82169050919050565b5f612b6282612b39565b9050919050565b612b7281612b58565b8114612b7c575f5ffd5b50565b5f81359050612b8d81612b69565b92915050565b5f60208284031215612ba857612ba7612294565b5b5f612bb584828501612b7f565b91505092915050565b5f81519050919050565b5f82825260208201905092915050565b5f819050602082019050919050565b5f60c083015f830151612bfc5f8601826122fa565b5060208301518482036020860152612c148282612341565b91505060408301518482036040860152612c2e8282612341565b9150506060830151612c436060860182612384565b5060808301518482036080860152612c5b82826123db565b91505060a083015184820360a0860152612c7582826124d7565b9150508091505092915050565b5f612c8d8383612be7565b905092915050565b5f602082019050919050565b5f612cab82612bbe565b612cb58185612bc8565b935083602082028501612cc785612bd8565b805f5b85811015612d025784840389528151612ce38582612c82565b9450612cee83612c95565b925060208a01995050600181019050612cca565b50829750879550505050505092915050565b5f6020820190508181035f830152612d2c8184612ca1565b905092915050565b612d3d8161229c565b82525050565b5f606082019050612d565f830186612d34565b612d636020830185612d34565b612d706040830184612d34565b949350505050565b5f81519050919050565b5f82825260208201905092915050565b5f819050602082019050919050565b612daa81612b58565b82525050565b5f612dbb8383612da1565b60208301905092915050565b5f602082019050919050565b5f612ddd82612d78565b612de78185612d82565b9350612df283612d92565b805f5b83811015612e22578151612e098882612db0565b9750612e1483612dc7565b925050600181019050612df5565b5085935050505092915050565b5f6020820190508181035f830152612e478184612dd3565b905092915050565b7f4e487b71000000000000000000000000000000000000000000000000000000005f52602260045260245ffd5b5f6002820490506001821680612e9357607f821691505b602082108103612ea657612ea5612e4f565b5b50919050565b7f4e487b71000000000000000000000000000000000000000000000000000000005f52603260045260245ffd5b5f819050815f5260205f209050919050565b5f6020601f8301049050919050565b5f82821b905092915050565b5f60088302612f357fffffffffffffffffffffffffffffffffffffffffffffffffffffffffffffffff82612efa565b612f3f8683612efa565b95508019841693508086168417925050509392505050565b5f819050919050565b5f612f7a612f75612f708461229c565b612f57565b61229c565b9050919050565b5f819050919050565b612f9383612f60565b612fa7612f9f82612f81565b848454612f06565b825550505050565b5f5f905090565b612fbe612faf565b612fc9818484612f8a565b505050565b5b81811015612fec57612fe15f82612fb6565b600181019050612fcf565b5050565b601f8211156130315761300281612ed9565b61300b84612eeb565b8101602085101561301a578190505b61302e61302685612eeb565b830182612fce565b50505b505050565b5f82821c905092915050565b5f6130515f1984600802613036565b1980831691505092915050565b5f6130698383613042565b9150826002028217905092915050565b61308282612309565b67ffffffffffffffff81111561309b5761309a61260d565b5b6130a58254612e7c565b6130b0828285612ff0565b5f60209050601f8311600181146130e1575f84156130cf578287015190505b6130d9858261305e565b865550613140565b601f1984166130ef86612ed9565b5f5b82811015613116578489015182556001820191506020850194506020810190506130f1565b86831015613133578489015161312f601f891682613042565b8355505b6001600288020188555050505b505050505050565b7f4e487b71000000000000000000000000000000000000000000000000000000005f52601160045260245ffd5b5f61317f8261229c565b91507fffffffffffffffffffffffffffffffffffffffffffffffffffffffffffffffff82036131b1576131b0613148565b5b600182019050919050565b5f6131c68261229c565b91506131d18361229c565b92508282039050818111156131e9576131e8613148565b5b92915050565b5f6131f98261229c565b91506132048361229c565b925082820190508082111561321c5761321b613148565b5b92915050565b5f8154905061323081612e7c565b9050919050565b81810361324557505061331a565b61324e82613222565b67ffffffffffffffff8111156132675761326661260d565b5b6132718254612e7c565b61327c828285612ff0565b5f601f8311600181146132a9575f8415613297578287015490505b6132a1858261305e565b865550613313565b601f1984166132b787612ed9565b96506132c286612ed9565b5f5b828110156132e9578489015482556001820191506001850194506020810190506132c4565b868310156133065784890154613302601f891682613042565b8355505b6001600288020188555050505b5050505050505b565b7f4e487b71000000000000000000000000000000000000000000000000000000005f52603160045260245ffdfea264697066735822122051e5911da306f3412e360c5efba0436d2fc834e4a24b9203ff7ff1942e80dd7c64736f6c634300081c0033",
    "linkReferences": {}
  },
  "methodIdentifiers": {
    "addCampaign(string,string,(string,string)[],string[])": "31a1f7fa",
    "deleteCampaign(uint256)": "75970193",
    "getCampaigns()": "a6b03633",
    "getHunters()": "fd6f5b4d",
    "getIndividualCampaignStats()": "f087492e",
    "getSingleCampaign(uint256)": "04efaa02",
    "getUserCampaigns(address)": "a1e5084c",
    "toggleIsRunning(uint256)": "4382af57",
    "updateCampaign(uint256,string,string,(string,string)[],string[])": "3174968a"
  },
  "id": 25
}